{
  "_format": "hh-sol-artifact-1",
  "contractName": "Swap",
  "sourceName": "contracts/Swap.sol",
  "abi": [
    {
      "anonymous": false,
      "inputs": [
        {
          "indexed": false,
          "internalType": "address",
          "name": "_addressToken",
          "type": "address"
        },
        {
          "indexed": false,
          "internalType": "uint256",
          "name": "_amount",
          "type": "uint256"
        }
      ],
      "name": "LiquidityAdded",
      "type": "event"
    },
    {
      "anonymous": false,
      "inputs": [
        {
          "indexed": false,
          "internalType": "address",
          "name": "_user",
          "type": "address"
        },
        {
          "indexed": false,
          "internalType": "address",
          "name": "_addressTokenFrom",
          "type": "address"
        },
        {
          "indexed": false,
          "internalType": "address",
          "name": "_addressTokenTo",
          "type": "address"
        },
        {
          "indexed": false,
          "internalType": "uint256",
          "name": "_amount",
          "type": "uint256"
        }
      ],
      "name": "Swapped",
      "type": "event"
    },
    {
      "anonymous": false,
      "inputs": [
        {
          "indexed": false,
          "internalType": "address",
          "name": "_addressToken",
          "type": "address"
        }
      ],
      "name": "TokenAdded",
      "type": "event"
    },
    {
      "inputs": [
        {
          "internalType": "address",
          "name": "_addressToken",
          "type": "address"
        },
        {
          "internalType": "uint256",
          "name": "_amount",
          "type": "uint256"
        }
      ],
      "name": "addLiquidity",
      "outputs": [],
      "stateMutability": "payable",
      "type": "function"
    },
    {
      "inputs": [
        {
          "internalType": "address",
          "name": "_addressToken",
          "type": "address"
        },
        {
          "internalType": "uint256",
          "name": "_price",
          "type": "uint256"
        },
        {
          "internalType": "string",
          "name": "_name",
          "type": "string"
        }
      ],
      "name": "addToken",
      "outputs": [],
      "stateMutability": "nonpayable",
      "type": "function"
    },
    {
      "inputs": [
        {
          "internalType": "address",
          "name": "_addressToken",
          "type": "address"
        }
      ],
      "name": "getLiquidity",
      "outputs": [
        {
          "internalType": "uint256",
          "name": "",
          "type": "uint256"
        }
      ],
      "stateMutability": "view",
      "type": "function"
    },
    {
      "inputs": [
        {
          "internalType": "address",
          "name": "_addressFrom",
          "type": "address"
        },
        {
          "internalType": "address",
          "name": "_addressTo",
          "type": "address"
        }
      ],
      "name": "getSwapRate",
      "outputs": [
        {
          "internalType": "uint256",
          "name": "",
          "type": "uint256"
        }
      ],
      "stateMutability": "view",
      "type": "function"
    },
    {
      "inputs": [
        {
          "internalType": "address",
          "name": "_addressFrom",
          "type": "address"
        },
        {
          "internalType": "address",
          "name": "_addressTo",
          "type": "address"
        },
        {
          "internalType": "uint256",
          "name": "_amount",
          "type": "uint256"
        }
      ],
      "name": "swap",
      "outputs": [],
      "stateMutability": "payable",
      "type": "function"
    }
  ],
  "bytecode": "0x6080604052348015600f57600080fd5b50336000806101000a81548173ffffffffffffffffffffffffffffffffffffffff021916908373ffffffffffffffffffffffffffffffffffffffff1602179055506117748061005f6000396000f3fe60806040526004361061004a5760003560e01c80631d0b347a1461004f57806356688700146100785780639eb2fc2d14610094578063a747b93b146100d1578063df791e501461010e575b600080fd5b34801561005b57600080fd5b5061007660048036038101906100719190610d21565b61012a565b005b610092600480360381019061008d9190610d90565b61028b565b005b3480156100a057600080fd5b506100bb60048036038101906100b69190610dd0565b6105a9565b6040516100c89190610e1f565b60405180910390f35b3480156100dd57600080fd5b506100f860048036038101906100f39190610e3a565b61065b565b6040516101059190610e1f565b60405180910390f35b61012860048036038101906101239190610e67565b6106de565b005b60008054906101000a900473ffffffffffffffffffffffffffffffffffffffff1673ffffffffffffffffffffffffffffffffffffffff163373ffffffffffffffffffffffffffffffffffffffff16146101b8576040517f08c379a00000000000000000000000000000000000000000000000000000000081526004016101af90610f17565b60405180910390fd5b81600160008573ffffffffffffffffffffffffffffffffffffffff1673ffffffffffffffffffffffffffffffffffffffff1681526020019081526020016000206001018190555080600160008573ffffffffffffffffffffffffffffffffffffffff1673ffffffffffffffffffffffffffffffffffffffff168152602001908152602001600020600001908161024e919061114e565b507f784c8f4dbf0ffedd6e72c76501c545a70f8b203b30a26ce542bf92ba87c248a48360405161027e919061122f565b60405180910390a1505050565b60008054906101000a900473ffffffffffffffffffffffffffffffffffffffff1673ffffffffffffffffffffffffffffffffffffffff163373ffffffffffffffffffffffffffffffffffffffff1614610319576040517f08c379a000000000000000000000000000000000000000000000000000000000815260040161031090610f17565b60405180910390fd5b600073ffffffffffffffffffffffffffffffffffffffff168273ffffffffffffffffffffffffffffffffffffffff1603610388576040517f08c379a000000000000000000000000000000000000000000000000000000000815260040161037f90611296565b60405180910390fd5b6000600160008473ffffffffffffffffffffffffffffffffffffffff1673ffffffffffffffffffffffffffffffffffffffff168152602001908152602001600020600101540361040d576040517f08c379a000000000000000000000000000000000000000000000000000000000815260040161040490611302565b60405180910390fd5b808273ffffffffffffffffffffffffffffffffffffffff1663dd62ed3e33306040518363ffffffff1660e01b8152600401610449929190611322565b602060405180830381865afa158015610466573d6000803e3d6000fd5b505050506040513d601f19601f8201168201806040525081019061048a9190611360565b10156104cb576040517f08c379a00000000000000000000000000000000000000000000000000000000081526004016104c2906113d9565b60405180910390fd5b8173ffffffffffffffffffffffffffffffffffffffff166323b872dd60008054906101000a900473ffffffffffffffffffffffffffffffffffffffff1630846040518463ffffffff1660e01b8152600401610528939291906113f9565b6020604051808303816000875af1158015610547573d6000803e3d6000fd5b505050506040513d601f19601f8201168201806040525081019061056b9190611468565b507fc17cea59c2955cb181b03393209566960365771dbba9dc3d510180e7cb312088828260405161059d929190611495565b60405180910390a15050565b600080600160008573ffffffffffffffffffffffffffffffffffffffff1673ffffffffffffffffffffffffffffffffffffffff16815260200190815260200160002060010154600160008573ffffffffffffffffffffffffffffffffffffffff1673ffffffffffffffffffffffffffffffffffffffff16815260200190815260200160002060010154670de0b6b3a764000061064591906114ed565b61064f919061155e565b90508091505092915050565b60008173ffffffffffffffffffffffffffffffffffffffff166370a08231306040518263ffffffff1660e01b8152600401610696919061122f565b602060405180830381865afa1580156106b3573d6000803e3d6000fd5b505050506040513d601f19601f820116820180604052508101906106d79190611360565b9050919050565b808373ffffffffffffffffffffffffffffffffffffffff166370a08231336040518263ffffffff1660e01b8152600401610718919061122f565b602060405180830381865afa158015610735573d6000803e3d6000fd5b505050506040513d601f19601f820116820180604052508101906107599190611360565b101561076457600080fd5b600081116107a7576040517f08c379a000000000000000000000000000000000000000000000000000000000815260040161079e90611601565b60405180910390fd5b6000600160008573ffffffffffffffffffffffffffffffffffffffff1673ffffffffffffffffffffffffffffffffffffffff168152602001908152602001600020600101540361082c576040517f08c379a00000000000000000000000000000000000000000000000000000000081526004016108239061166d565b60405180910390fd5b808373ffffffffffffffffffffffffffffffffffffffff1663dd62ed3e33306040518363ffffffff1660e01b8152600401610868929190611322565b602060405180830381865afa158015610885573d6000803e3d6000fd5b505050506040513d601f19601f820116820180604052508101906108a99190611360565b10156108ea576040517f08c379a00000000000000000000000000000000000000000000000000000000081526004016108e1906113d9565b60405180910390fd5b60006108f684846105a9565b9050670de0b6b3a7640000818361090d91906114ed565b610917919061155e565b8373ffffffffffffffffffffffffffffffffffffffff166370a08231306040518263ffffffff1660e01b8152600401610950919061122f565b602060405180830381865afa15801561096d573d6000803e3d6000fd5b505050506040513d601f19601f820116820180604052508101906109919190611360565b10156109d2576040517f08c379a00000000000000000000000000000000000000000000000000000000081526004016109c9906116d9565b60405180910390fd5b8373ffffffffffffffffffffffffffffffffffffffff166323b872dd3330856040518463ffffffff1660e01b8152600401610a0f939291906113f9565b6020604051808303816000875af1158015610a2e573d6000803e3d6000fd5b505050506040513d601f19601f82011682018060405250810190610a529190611468565b508273ffffffffffffffffffffffffffffffffffffffff1663a9059cbb33670de0b6b3a764000084610a84919061155e565b85610a8f91906114ed565b6040518363ffffffff1660e01b8152600401610aac929190611495565b6020604051808303816000875af1158015610acb573d6000803e3d6000fd5b505050506040513d601f19601f82011682018060405250810190610aef9190611468565b507f5a417e3ceaff68360f7300df6686a9d417ae12328724de7bc2fd6c012a2ffa8533858585604051610b2594939291906116f9565b60405180910390a150505050565b6000604051905090565b600080fd5b600080fd5b600073ffffffffffffffffffffffffffffffffffffffff82169050919050565b6000610b7282610b47565b9050919050565b610b8281610b67565b8114610b8d57600080fd5b50565b600081359050610b9f81610b79565b92915050565b6000819050919050565b610bb881610ba5565b8114610bc357600080fd5b50565b600081359050610bd581610baf565b92915050565b600080fd5b600080fd5b6000601f19601f8301169050919050565b7f4e487b7100000000000000000000000000000000000000000000000000000000600052604160045260246000fd5b610c2e82610be5565b810181811067ffffffffffffffff82111715610c4d57610c4c610bf6565b5b80604052505050565b6000610c60610b33565b9050610c6c8282610c25565b919050565b600067ffffffffffffffff821115610c8c57610c8b610bf6565b5b610c9582610be5565b9050602081019050919050565b82818337600083830152505050565b6000610cc4610cbf84610c71565b610c56565b905082815260208101848484011115610ce057610cdf610be0565b5b610ceb848285610ca2565b509392505050565b600082601f830112610d0857610d07610bdb565b5b8135610d18848260208601610cb1565b91505092915050565b600080600060608486031215610d3a57610d39610b3d565b5b6000610d4886828701610b90565b9350506020610d5986828701610bc6565b925050604084013567ffffffffffffffff811115610d7a57610d79610b42565b5b610d8686828701610cf3565b9150509250925092565b60008060408385031215610da757610da6610b3d565b5b6000610db585828601610b90565b9250506020610dc685828601610bc6565b9150509250929050565b60008060408385031215610de757610de6610b3d565b5b6000610df585828601610b90565b9250506020610e0685828601610b90565b9150509250929050565b610e1981610ba5565b82525050565b6000602082019050610e346000830184610e10565b92915050565b600060208284031215610e5057610e4f610b3d565b5b6000610e5e84828501610b90565b91505092915050565b600080600060608486031215610e8057610e7f610b3d565b5b6000610e8e86828701610b90565b9350506020610e9f86828701610b90565b9250506040610eb086828701610bc6565b9150509250925092565b600082825260208201905092915050565b7f4e6f7420746865206f776e657200000000000000000000000000000000000000600082015250565b6000610f01600d83610eba565b9150610f0c82610ecb565b602082019050919050565b60006020820190508181036000830152610f3081610ef4565b9050919050565b600081519050919050565b7f4e487b7100000000000000000000000000000000000000000000000000000000600052602260045260246000fd5b60006002820490506001821680610f8957607f821691505b602082108103610f9c57610f9b610f42565b5b50919050565b60008190508160005260206000209050919050565b60006020601f8301049050919050565b600082821b905092915050565b6000600883026110047fffffffffffffffffffffffffffffffffffffffffffffffffffffffffffffffff82610fc7565b61100e8683610fc7565b95508019841693508086168417925050509392505050565b6000819050919050565b600061104b61104661104184610ba5565b611026565b610ba5565b9050919050565b6000819050919050565b61106583611030565b61107961107182611052565b848454610fd4565b825550505050565b600090565b61108e611081565b61109981848461105c565b505050565b5b818110156110bd576110b2600082611086565b60018101905061109f565b5050565b601f821115611102576110d381610fa2565b6110dc84610fb7565b810160208510156110eb578190505b6110ff6110f785610fb7565b83018261109e565b50505b505050565b600082821c905092915050565b600061112560001984600802611107565b1980831691505092915050565b600061113e8383611114565b9150826002028217905092915050565b61115782610f37565b67ffffffffffffffff8111156111705761116f610bf6565b5b61117a8254610f71565b6111858282856110c1565b600060209050601f8311600181146111b857600084156111a6578287015190505b6111b08582611132565b865550611218565b601f1984166111c686610fa2565b60005b828110156111ee578489015182556001820191506020850194506020810190506111c9565b8683101561120b5784890151611207601f891682611114565b8355505b6001600288020188555050505b505050505050565b61122981610b67565b82525050565b60006020820190506112446000830184611220565b92915050565b7f496e76616c696420746f6b656e20616464726573730000000000000000000000600082015250565b6000611280601583610eba565b915061128b8261124a565b602082019050919050565b600060208201905081810360008301526112af81611273565b9050919050565b7f546f6b656e206e6f742072656769737465726564000000000000000000000000600082015250565b60006112ec601483610eba565b91506112f7826112b6565b602082019050919050565b6000602082019050818103600083015261131b816112df565b9050919050565b60006040820190506113376000830185611220565b6113446020830184611220565b9392505050565b60008151905061135a81610baf565b92915050565b60006020828403121561137657611375610b3d565b5b60006113848482850161134b565b91505092915050565b7f4d75737420617070726f766520746f6b656e7300000000000000000000000000600082015250565b60006113c3601383610eba565b91506113ce8261138d565b602082019050919050565b600060208201905081810360008301526113f2816113b6565b9050919050565b600060608201905061140e6000830186611220565b61141b6020830185611220565b6114286040830184610e10565b949350505050565b60008115159050919050565b61144581611430565b811461145057600080fd5b50565b6000815190506114628161143c565b92915050565b60006020828403121561147e5761147d610b3d565b5b600061148c84828501611453565b91505092915050565b60006040820190506114aa6000830185611220565b6114b76020830184610e10565b9392505050565b7f4e487b7100000000000000000000000000000000000000000000000000000000600052601160045260246000fd5b60006114f882610ba5565b915061150383610ba5565b925082820261151181610ba5565b91508282048414831517611528576115276114be565b5b5092915050565b7f4e487b7100000000000000000000000000000000000000000000000000000000600052601260045260246000fd5b600061156982610ba5565b915061157483610ba5565b9250826115845761158361152f565b5b828204905092915050565b7f4d7573742073776170206120706f73697469766520616d6f756e74206f66207460008201527f6f6b656e73000000000000000000000000000000000000000000000000000000602082015250565b60006115eb602583610eba565b91506115f68261158f565b604082019050919050565b6000602082019050818103600083015261161a816115de565b9050919050565b7f5468697320746f6b656e206973206e6f7420737570706f727465640000000000600082015250565b6000611657601b83610eba565b915061166282611621565b602082019050919050565b600060208201905081810360008301526116868161164a565b9050919050565b7f4e6f7420656e6f756768206c6971756964697479000000000000000000000000600082015250565b60006116c3601483610eba565b91506116ce8261168d565b602082019050919050565b600060208201905081810360008301526116f2816116b6565b9050919050565b600060808201905061170e6000830187611220565b61171b6020830186611220565b6117286040830185611220565b6117356060830184610e10565b9594505050505056fea26469706673582212205e981b2265dc6577238dcd3ac53573745daf7007120c20d9d85e789477b88a0564736f6c634300081c0033",
  "linkReferences": {},
  "deployedLinkReferences": {}
}